:02000000412895
:1000060083120313F101F20123087202031D0D2866
:100016002208710203182228F301F4010030740249
:10002600031D17286F30730203181E280000F30AF9
:100036000319F40A1128F10A0319F20A072808001D
:0C00460083160313880183128801080050
:100052005A30831203138800F430A2000130A30047
:04006200032008006F
:10006600A530831203138800F430A2000130A300E8
:04007600032008005B
:08007A00831203138801080042
:0A0082002320292033203D204528CB
:02400E004A2F37
:00000001FF
