:02000000832853
:10000600831203130610000000000000000006140F
:0E0016000630FD00FD0B0D280000061008004E
:1000240083120313F801F9011030FC00710DF80D6F
:10003400F90D7408F8027508031C750FF90203180A
:100044002A287408F80775080318750FF9070310B0
:0A005400F00DF10DFC0B1828080058
:0A005E008312031322089500080026
:0A0068008312031322089B00080016
:100072005A308312031388009630A2002F20963044
:06008200A200342008007A
:10008800831203138801A2012F20A2013420080043
:0A00980083160313061086140800F7
:1000A20003208618552852288F018E0101309000B6
:1000B200861C5C28592890010F08F300F40173088C
:1000C200F100F0010E08F0040030F1042230F400D7
:0800D2000130F50012200800C6
:1000DA0083160313071187100C30831297000C3014
:1000EA009D00F93083169200053083129200803009
:0C00FA00A2002F208030A200342008005B
:10010600831603138801831288016D204C20392041
:100116000530FB000F30FC00F130FD00FD0B91288F
:10012600FC0B9128FB0B9128512000307102031D16
:100136009E28143070020318A12844208A28A22879
:02400E004A2F37
:00000001FF
