:0200000099283D
:0A000600831203132208950008007E
:0A0010008312031322089B0008006E
:10001A0083120313F101F20123087202031D172848
:10002A002208710203182C28F301F401003074022B
:10003A00031D21286F307302031828280000F30AD1
:10004A000319F40A1B28F10A0319F20A11280800F5
:0C005A008316031388018312880108003C
:10006600831203138801A201A3010320A201A301A5
:040076000820080056
:10007A0055308312031388009630A200A30103208F
:10008A009630A200A3010820F430A2000130A30098
:04009A000D2008002D
:10009E00F1308316031387050C30831297000C3052
:1000AE009D00F93083169200053083129200803045
:0800BE00950080309B00080052
:1000C600AA308312031388009630A200A3010320EE
:1000D6009630A200A3010820F430A2000130A3004C
:0400E6000D200800E1
:1000EA005A308312031388009630A200A30103201A
:1000FA009630A200A3010820F430A2000130A30028
:04010A000D200800BC
:10010E00A5308312031388009630A200A3010320AA
:10011E009630A200A3010820F430A2000130A30003
:04012E000D20080098
:100132002D204F203D207520632087203320A028CA
:02400E004A2F37
:00000001FF
