:02000000E028F6
:0A000600831203132408950008007C
:1000100083120313F101F20125087202031D122855
:100020002408710203182728F301F4010030740238
:10003000031D1C286F307302031823280000F30AE5
:100040000319F40A1628F10A0319F20A0C28080009
:0E0050008312031321088A0020088200080092
:10005E008312031306150630FD00FD0B3428000035
:04006E00061108006F
:1000720083120313F801F9011030FC00710DF80D21
:10008200F90D7408F8027508031C750FF9020318BC
:1000920051287408F80775080318750FF90703103B
:0A00A200F00DF10DFC0B3F280800E3
:0A00AC008312031324089B000800D0
:1000B60002308316031386004030870088018312BE
:1000C6008601870188016430A4000030A50008205D
:0200D600080020
:1000D8002F20FF30A200FF30A300861883280130AC
:1000E800A202031CA30300302306031D7D28003051
:1000F8002206031D8228F001F101AA2871288F0128
:100108008E0101309000FF30A200FF30A300861C52
:100118009E280130A202031CA30300302306031DFE
:10012800972800302206031D9D289001F001F10157
:10013800AA288B2890010F08F100F0010E08F0049E
:0E0148000030F1047430F400F5013920080095
:10015600831203138801A4010320A401562008007A
:1001660028208A110A128000840AA00A0319A10A0B
:08017600F003031DB32808008B
:10017E0083160313071187100C30831297000C306F
:10018E009D00F93083169200053083129200803064
:0C019E00A40003208030A40056200800BC
:1001AA005A308312031388009630A4000320963035
:0601BA00A400562008001D
:1001C0005B20BF206C2000307102031DE928143031
:1001D00070020318ED28AB20E228D5200230FB0086
:1001E0000430FC00BA30FD00FD0BF428FC0BF428B1
:0A01F000FB0BF4280000E228FC28B5
:02400E004A2F37
:00000001FF
