:02000000882C4A
:10000800FF00030E8301B3000A08B2008A017008DA
:10001800A5007108A4007208A3007308A200740860
:10002800A1000C1D38280C112608003A031D2728AA
:1000380007160130A6002808F000F10170089600A4
:100048002708950038282708403CF3002808031C97
:10005800013E9C3CF4000712A6017408F000F1016F
:1000680070089600730895002508F0002408F10030
:100078002308F2002208F3002108F40032088A005D
:0A008800330E8300FF0E7F0E090007
:0A0092008312031344089B000800CA
:10009C008312031306140630FD00FD0B53280000D9
:0400AC000610080032
:1000B00083120313F801F9011030FC00710DF80DE3
:1000C000F90D7408F8027508031C750FF90203187E
:1000D00070287408F80775080318750FF9070310DE
:0A00E000F00DF10DFC0B5E28080086
:0E00EA00831203132A088A00290882000800E6
:0E00F800BF3083160313860583120617080017
:10010600C730831203139F054008F000F00D7010EE
:10011600F00D7010F00D701070089F040D30FD008A
:10012600FD0B93281F151F1D992896281E08F300FE
:10013600F4017308F100F00183161E08F004003084
:04014600F1040800B8
:10014A008316031398169030831298008316871724
:10015A00071383128C1EB4281A08F000AE28080070
:10016A0083120313F101F20141087202031DBF2831
:10017A00400871020318D428F301F4010030740214
:10018A00031DC9286F3073020318D0280000F30A30
:10019A000319F40AC328F10A0319F20AB928080054
:0E01AA000030831203138C1A0130F00008009D
:1001B80083120313C201C3014E20FF30C000FF3079
:1001C800C1008618F7280130C002031CC1030030A3
:1001D8004106031DF12800304006031DF628F001F2
:1001E800F1013129E5288101C201C3010B118030D9
:1001F80083168100FF308312C000FF30C100861CC7
:1002080026290B1D16290B11C20A0319C30A430814
:10021800003C031D11294208C83C03181629F001A7
:10022800F10131290130C002031CC103003041062D
:10023800031D202900304006031D2529F001F10186
:10024800312903294208F100F0010108F0070318D9
:0C025800F10A9130F400F5015820080074
:0C026400831203138801C4014920080024
:1002700083120313FB01FA01F901F801A001730DC8
:10028000F80D7408F8027508031C750FF90276085A
:10029000031C760FFA027708031C770FFB0200019C
:1002A000031C0130A002F30D0730FC00730DF80DA4
:1002B000F90DFA0DFB0DA00D7408731C7129F802DD
:1002C0007508031C750FF9027608031C760FFA02F5
:1002D0007708031C770FFB020001031C0130A0020A
:1002E0008229F80775080318750FF90776080318AF
:1002F000760FFA0777080318770FFB07000103183A
:100300000130A007F30DFC0B5629720DF80DF90D05
:10031000FA0DFB0DA00D7408731CA029F8027508D6
:10032000031C750FF9027608031C760FFA02770892
:10033000031C770FFB020001031C0130A002B1294E
:10034000F80775080318750FF90776080318760F74
:10035000FA0777080318770FFB070001031801302D
:10036000A007F20D0730FC00720DF80DF90DFA0D23
:10037000FB0DA00D7408721CCF29F8027508031C30
:10038000750FF9027608031C760FFA027708031C32
:10039000770FFB020001031C0130A002E029F807DF
:1003A00075080318750FF90776080318760FFA0712
:1003B00077080318770FFB07000103180130A00727
:1003C000F20DFC0BB429710DF80DF90DFA0DFB0DB2
:1003D000A00D7408721CFE29F8027508031C750F25
:1003E000F9027608031C760FFA027708031C770FD0
:1003F000FB020001031C0130A0020F2AF807750858
:100400000318750FF90776080318760FFA077708AF
:100410000318770FFB07000103180130A007F10D47
:100420000730FC00710DF80DF90DFA0DFB0DA00D54
:100430007408711C2D2AF8027508031C750FF90247
:100440007608031C760FFA027708031C770FFB026D
:100450000001031C0130A0023E2AF80775080318AA
:10046000750FF90776080318760FFA07770803184F
:10047000770FFB07000103180130A007F10DFC0BFB
:10048000122A700DF80DF90DFA0DFB0DA00D740870
:10049000711C5C2AF8027508031C750FF9027608B6
:1004A000031C760FFA027708031C770FFB0200018A
:1004B000031C0130A0026D2AF80775080318750F98
:1004C000F90776080318760FFA0777080318770FED
:1004D000FB07000103180130A007F00D0730FC00F6
:1004E000700DF80DF90DFA0DFB0DA00D7408701CC0
:1004F0008B2AF8027508031C750FF9027608031C95
:10050000760FFA027708031C770FFB020001031C29
:100510000130A0029C2AF80775080318750FF90727
:1005200076080318760FFA0777080318770FFB078A
:10053000000103180130A007F00DFC0B702A7018A1
:10054000AF2A7408F80775080318750FF9077608BD
:100550000318760FFA0777080318770FFB070800D0
:10056000831203131A08F100981CB82A18121816DF
:060570007108F000080014
:10057600831203132230FC00F801F901FA01FB0192
:10058600FC030319F12A0310FB0CFA0CF90CF80C06
:10059600F30CF20CF10CF00C031CC32AFC03031938
:1005A600E32A7408F80775080318750FF907760823
:1005B6000318760FFA0777080318770FFB07C72A81
:1005C6007408F80775080318750FF90776080318F5
:0E05D600760FFA0777080318770FFB07080067
:1005E400831203133808F0003908F100F201F30113
:1005F400A030F4000F30F500F601F701BB2268309B
:10060400F4000130F500F601F7013821E830BC00B0
:100614000330BD00BE01BF017008BC077108031898
:10062400710FBD0772080318720FBE077308031811
:10063400730FBF078B13BA01BB0100303B02031DCC
:10064400252B32303A020318692B8F018E013D08A5
:10065400F0003E08F1003F08F200F3017008960034
:100664003C08950007160C110C19392B362B071270
:100674004030F0009C30F100F201F3017008F50005
:100684007108F6007208F7007308F8003C08F502D8
:100694003D08031C3D0FF6023E08031C3E0FF70203
:1006A4003F08031C3F0FF8027608F0007708F100BA
:1006B4007808F200F30170089600750895000C1193
:1006C4000C19652B622BBA0A0319BB0A1F2B8B1753
:0206D40008001C
:1006D60000308B1B013083120313B800C001832046
:1006E6008B1383123818792B8B137A2B8B170800F0
:1006F6008316031387100C3083129D00F93083167E
:1007060092000530831292008030C4004920080010
:1007160055308312031388009630C4004920080020
:10072600A5308312031388003908C4004920080045
:10073600831203133908013C031DA32B3808683CB8
:100746000318A92B6830B8000130B9003808F0004A
:100756003908F100F201F301A030F4000F30F50082
:10076600F601F701BB226830F4000130F500F6010E
:10077600F7013821E830F4000330F500F601F701FF
:100786007008F40771080318710FF507720803184B
:10079600720FF60773080318730FF7077408A7009C
:0607A6007508A800080020
:1007AC00AA308312031388009630C4004920080035
:0807BC00831203130616080066
:0807C400831203130612080062
:1007CC0075208A110A128000840AA90A0319AA0A40
:0807DC00F003031DE62B0800E9
:1007E40083160313071283120712013090008F013E
:1007F4008E010B3097002808F000F1017008960074
:10080400270895000C1183160C150B178B1708007D
:10081400D52070080319122CB0227008AB00232CC9
:10082400DC2000307102031D192C0A3070020318F9
:100834001D2C3221222C5A3088003908C40049204A
:040844000A2C080072
:1008480083120313FB01FA01F9018030F800F10C5F
:10085800F00C031C382C7408F90775080318750F79
:10086800FA070318FB0A0310F01F402C7408FA0754
:1008780075080318750FFB07FB0CFA0CF90CF80C3C
:10088800031C2B2C7B08F3007A08F2007908F1008E
:060898007808F0000800E2
:10089E00FF30831603138500023086004030870038
:1008AE00880107308900831285018601870188013E
:1008BE0083160613831206137C206430C0000030AA
:0608CE00C100B520080086
:1008D40033308316031399001815A5206430C00023
:0808E4000030C100B52008003E
:0C08EC0083160313061283120612080084
:1008F8008030831603139F00813083129F002130BC
:08090800FD00FD0B852C080029
:1009100083120313A601B830A7000B30A8004F24A0
:100920006A2476247B23F2237C24B001B101423077
:10093000FD00FD0B992C0000B801B9019B23D520C7
:1009400070080319E92DB0227008AB00B92D96305C
:10095000B8009630B9000A24E92D6430B80064303C
:10096000B9009323E92DD623E92D8B23E92D3221DC
:10097000E92D6430B8009630B9000A24E92D96308C
:10098000B8006430B9000A24E92D6430B80096300C
:10099000B9009323E92D9630B8006430B900932351
:1009A000E92DDE23E92DE223E92D86110330FB003A
:1009B0000830FC007730FD00FD0BDC2CFC0BDC2C40
:1009C000FB0BDC2C86150330FB000830FC00773075
:1009D000FD00FD0BE92CFC0BE92CFB0BE92CB430E2
:1009E000B800B9019B231530FB004B30FC00BE3032
:1009F000FD00FD0BF92CFC0BF92CFB0BF92C000076
:100A00000630FB001330FC00AD30FD00FD0B062D61
:100A1000FC0B062DFB0B062D000000006B2370085D
:100A2000B6007108B7003608AC003708AD003608CC
:100A3000F0003708F1006430F4000030F5002424A1
:100A4000FF30F4000330F50058207008AE00710844
:100A5000AF0083160C11831207123708013C031DE7
:100A6000332D3608F43C0318462D06170630FB00DC
:100A70001330FC00AD30FD00FD0B3C2DFC0B3C2D7C
:100A8000FB0B3C2D000000000613472D06130B3016
:100A9000FB002630FC005D30FD00FD0B4D2DFC0BF6
:100AA0004D2DFB0B4D2D0000000083160C158312FD
:100AB000B401B5013508013C031D602D3408683CC4
:100AC000031C792D3408B8003508B900F222023031
:100AD000FB000430FC00BA30FD00FD0B6D2DFC0B5B
:100AE0006D2DFB0B6D2D00000A30B4070318B50AFD
:100AF0005A2DB401B5013508003C031D812D340881
:100B0000B43C031C9A2D3408B8003508B900F22211
:100B10000230FB000430FC00BA30FD00FD0B8E2DCE
:100B2000FC0B8E2DFB0B8E2D00000A30B407031832
:100B3000B50A7B2D0B30FB002630FC005D30FD003C
:100B4000FD0BA02DFC0BA02DFB0BA02D0000000029
:100B5000B801B901F2221530FB004B30FC00BE3069
:100B6000FD00FD0BB12DFC0BB12DFB0BB12D0000D9
:100B7000E92D2B08463A0319A72C2B08423A0319F2
:100B8000AD2C2B08523A0319B32C2B084C3A0319FD
:100B9000B52C2B08533A0319B72C2B08473A0319E5
:100BA000B92C2B08483A0319BF2C2B08493A0319D2
:100BB000C52C2B084A3A0319CB2C2B08583A031999
:100BC000D12C2B08783A0319D32C2B08593A031946
:060BD000D52C9C2CEA2D3F
:02400E004A2F37
:00000001FF
