:02000000A82C2A
:10000800FF00030E8301B2000A08B3008A017008DA
:10001800A5007108A4007208A3007308A200740860
:10002800A1000C1D38280C112808003A031D2728A8
:1000380007160130A8002708F000F10170089600A3
:100048002608950038282608403CF3002708031C9A
:10005800013E9C3CF4000712A8017408F000F1016D
:1000680070089600730895002508F0002408F10030
:100078002308F2002208F3002108F40033088A005C
:0A008800320E8300FF0E7F0E090008
:1000920083120313F101F20146087202031D532871
:1000A2004508710203185B2800000000F10A0319D9
:0600B200F20A4D280800CF
:1000B80083120313F801F9011030FC00710DF80DDB
:1000C800F90D7408F8027508031C750FF902031876
:1000D80074287408F80775080318750FF9070310D2
:0A00E800F00DF10DFC0B622808007A
:1000F2008312031306140A30C5000030C6004920DB
:0401020006100800DB
:0A0106008312031344089B00080055
:10011000831203132230FC00F801F901FA01FB01FC
:10012000FC030319BE280310FB0CFA0CF90CF80CA5
:10013000F30CF20CF10CF00C031C9028FC030319D7
:10014000B0287408F80775080318750FF9077608C2
:100150000318760FFA0777080318770FFB07942820
:100160007408F80775080318750FF907760803185F
:0E017000760FFA0777080318770FFB070800D1
:10017E0083120313FB01FA01F901F801A001730DBB
:10018E00F80D7408F8027508031C750FF90276084D
:10019E00031C760FFA027708031C770FFB0200018F
:1001AE00031C0130A002F30D0730FC00730DF80D97
:1001BE00F90DFA0DFB0DA00D7408731CF828F8024A
:1001CE007508031C750FF9027608031C760FFA02E8
:1001DE007708031C770FFB020001031C0130A002FD
:1001EE000929F80775080318750FF907760803181B
:1001FE00760FFA0777080318770FFB07000103182D
:10020E000130A007F30DFC0BDD28720DF80DF90D72
:10021E00FA0DFB0DA00D7408731C2729F802750842
:10022E00031C750FF9027608031C760FFA02770885
:10023E00031C770FFB020001031C0130A0023829BA
:10024E00F80775080318750FF90776080318760F67
:10025E00FA0777080318770FFB0700010318013020
:10026E00A007F20D0730FC00720DF80DF90DFA0D16
:10027E00FB0DA00D7408721C5629F8027508031C9C
:10028E00750FF9027608031C760FFA027708031C25
:10029E00770FFB020001031C0130A0026729F8074B
:1002AE0075080318750FF90776080318760FFA0705
:1002BE0077080318770FFB07000103180130A0071A
:1002CE00F20DFC0B3B29710DF80DF90DFA0DFB0D1E
:1002DE00A00D7408721C8529F8027508031C750F91
:1002EE00F9027608031C760FFA027708031C770FC3
:1002FE00FB020001031C0130A0029629F8077508C5
:10030E000318750FF90776080318760FFA077708A2
:10031E000318770FFB07000103180130A007F10D3A
:10032E000730FC00710DF80DF90DFA0DFB0DA00D47
:10033E007408711CB429F8027508031C750FF902B4
:10034E007608031C760FFA027708031C770FFB0260
:10035E000001031C0130A002C529F8077508031817
:10036E00750FF90776080318760FFA077708031842
:10037E00770FFB07000103180130A007F10DFC0BEE
:10038E009929700DF80DF90DFA0DFB0DA00D7408DD
:10039E00711CE329F8027508031C750FF902760823
:1003AE00031C760FFA027708031C770FFB0200017D
:1003BE00031C0130A002F429F80775080318750F05
:1003CE00F90776080318760FFA0777080318770FE0
:1003DE00FB07000103180130A007F00D0730FC00E9
:1003EE00700DF80DF90DFA0DFB0DA00D7408701CB3
:1003FE00122AF8027508031C750FF9027608031C01
:10040E00760FFA027708031C770FFB020001031C1C
:10041E000130A002232AF80775080318750FF90793
:10042E0076080318760FFA0777080318770FFB077D
:10043E00000103180130A007F00DFC0BF72970180E
:10044E00362A7408F80775080318750FF907760829
:10045E000318760FFA0777080318770FFB070800C3
:10046E0083160313981690308312980083168717FD
:10047E00071383128C1E462A1A08F000402A080021
:0C048E00831203138801C40183200800BE
:10049A00C730831203139F054008F000F00D701057
:1004AA00F00D7010F00D701070089F041430C50024
:1004BA000030C60049201F151F1D642A612A1E0824
:1004CA00F300F4017308F100F00183161E08F0042A
:0604DA000030F1040800EF
:0E04E0008312031330088A002F0882000800E0
:1004EE0083120313C201C3017920FF30C000FF3015
:1004FE00C1008618922A0130C002031CC1030030CD
:10050E004106031D8C2A00304006031D912AF0017E
:10051E00F101CC2A802A8101C201C3010B11803066
:10052E0083168100FF308312C000FF30C100861C8D
:10053E00C12A0B1DB12A0B11C20A0319C30A4308A3
:10054E00003C031DAC2A4208C83C0318B12AF00136
:10055E00F101CC2A0130C002031CC1030030410658
:10056E00031DBB2A00304006031DC02AF001F10115
:10057E00CC2A9E2A4208F100F0010108F007031868
:0C058E00F10A9130F400F5015C20080037
:10059A00831203131A08F100981CD52A1812181688
:0605AA007108F0000800DA
:0E05B0000030831203138C1A0130F000080093
:0C05BE00831603130613831206170800AF
:1005CA0083120313F101F20141087202031DEF2A9B
:1005DA00400871020318082BF301F4010130740278
:1005EA00031DF92A903073020318042B000000003F
:1005FA00000000000000F30A0319F40AF32AF10AC2
:08060A000319F20AE92A0800B5
:10061200A5308312031388003908C4008320080020
:10062200D82270080319192BCD227008B1002A2B89
:10063200772200307102031D202B0A30700203184A
:10064200242B4722292B5A3088003908C4008320E2
:04065200112B080060
:100656008316031387100C3083129D00F93083161E
:1006660092000530831292008030C4008320080077
:080676008312031306120800B1
:10067E0083160313071283120712013090008F01A5
:10068E008E010B3097002708F000F10170089600DC
:10069E00260895000C1183160C150B178B170800E6
:1006AE008030831603139F00813083129F003230F7
:0A06BE00C5000030C6004920080006
:1006C800831203133908013C031D6C2B3808683C5E
:1006D8000318722B6830B8000130B9003808F000F0
:1006E8003908F100F201F301A030F4000F30F500F1
:1006F800F601F70188206830F4000130F500F601B2
:10070800F701BF20E830F4000330F500F601F701E7
:100718007008F40771080318710FF50772080318B9
:10072800720FF60773080318730FF7077408A6000B
:060738007508A70008008F
:10073E0055308312031388009630C40083200800BE
:10074E0083120313FB01FA01F9018030F800F10C5A
:10075E00F00C031CBB2B7408F90775080318750FF2
:10076E00FA070318FB0A0310F01FC32B7408FA07CD
:10077E0075080318750FFB07FB0CFA0CF90CF80C37
:10078E00031CAE2B7B08F3007A08F2007908F10007
:06079E007808F0000800DD
:1007A4003330831603139900181537226430C000C0
:0807B4000030C100E52208003D
:1007BC0080300B0583120313B800C0014D22700862
:1007CC008312B9007108BA007F308B053808031901
:0E07DC00F02B8B173908F0003A08F1000800E6
:1007EA00AA308312031388009630C40083200800BD
:0807FA00831203130616080028
:10080200831203133808F0003908F100F201F301F2
:10081200A030F4000F30F500F601F70188206830AF
:10082200F4000130F500F601F701BF20E830BC000A
:100832000330BD00BE01BF017008BC077108031878
:10084200710FBD0772080318720FBE0773080318F1
:10085200730FBF077F308B05BA01BB0100303B022B
:10086200031D352C32303A020318792C8F018E0188
:100872003D08F0003E08F1003F08F200F301700865
:1008820096003C08950007160C110C19492C462CB1
:1008920007124030F0009C30F100F201F3017008C1
:1008A200F5007108F6007208F7007308F8003C08BA
:1008B200F5023D08031C3D0FF6023E08031C3E0FE5
:1008C200F7023F08031C3F0FF8027608F000770892
:1008D200F1007808F200F30170089600750895009F
:1008E2000C110C19752C722CBA0A0319BB0A2F2C85
:0408F2008B17080058
:1008F600FF308316031385000230860040308700E0
:1009060088010730890083128501860187018801E5
:100916008316061383120613DF226430C0000030EC
:06092600C100E5220800FB
:0C092C0083160313061283120612080043
:1009380070228A110A128000840AAF0A0319B00AC9
:08094800F003031D9C2C0800C4
:10095000B83083120313A6000B30A700A8017B2434
:10096000D22396242B233F235723AB01AC016430C1
:10097000C5000030C6004920B801B9016423D8225F
:1009800070080319B02DCD227008B100802D96306B
:10099000B8009630B9001123B02D6430B80064302F
:1009A000B9000923B02DF523B02D9F23B02D472288
:1009B000B02D6430B8009630B9001123B02D9630B8
:1009C000B8006430B9001123B02D6430B8009630FF
:1009D000B9000923B02D9630B8006430B90009235E
:1009E000B02DFD23B02D3B23B02D8611C830C000A3
:1009F000C101E5228615C830C000C101E522B4302E
:100A0000B800B9016423D030C0000730C100E5222E
:100A1000F430C0000130C100E522DE237008B600CA
:100A20007108B7003608A9003708AA003608F00098
:100A30003708F1006430F4000030F500A723FF30E0
:100A4000F4000330F5005C207008AD007108AE00C2
:100A500083160C11831207123708013C031D322D37
:100A60003608F43C03183C2D0617F430C000013062
:100A7000C100E52206133D2D061383160C158312C3
:100A8000B401B5013508013C031D482D3408683C0C
:100A9000031C592D3408B8003508B900012464300E
:100AA000C0000030C100E5220A30B4070318B50ABF
:100AB000422DB401B5013508003C031D612D3408F9
:100AC000B43C031C722D3408B8003508B900012469
:100AD0006430C0000030C100E5220A30B4070318BA
:100AE000B50A5B2DE830C0000330C100E522B80133
:100AF000B9010124D030C0000730C100E522B02D7B
:100B00003108463A0319C72C3108423A0319CD2C53
:100B10003108523A0319D32C31084C3A0319D52C19
:100B20003108533A0319D72C3108473A0319D92C05
:100B30003108483A0319DF2C3108493A0319E52CEA
:100B400031084A3A0319EB2C3108583A0319F12CB1
:100B50003108783A0319F32C3108593A0319F52C66
:040B6000BC2CB12DCB
:02400E004A2F37
:00000001FF
