:02000000512885
:0E0006008312031321088A00200882000800DC
:1000140083120313F101F20123087202031D142851
:100024002208710203182928F301F4010030740234
:10003400031D1E286F307302031825280000F30ADD
:100044000319F40A1828F10A0319F20A0E28080001
:0C00540083160313061283120612080024
:100060000230831603138600403087008801831214
:100070008601870188016430A2000030A3000A20B5
:02008000080076
:1000820003208A110A128000840AA00A0319A10A15
:08009200F003031D41280800E2
:08009A0083120313061608008F
:0800A20030202A204D205428D3
:02400E004A2F37
:00000001FF
