:02000000A42931
:10000800FF00030E8301A8000A08A9008A017008EE
:10001800A2007108A1007208A0000C1C2B280C106B
:100028000B308F00DC308E000130A30086152408C9
:10003800F0002508F100F10CF00CF113F10CF00CB4
:10004800F1137008831692008312910112158C1C0B
:1000580034282308031934288C108611A30112119F
:100068002208F0002108F1002008F20029088A007F
:0A007800280E8300FF0E7F0E090022
:10008200710DF80DF90D7408F8027508031C750F4F
:10009200F902F00DF10D0F30FC00710DF80DF90DA4
:1000A2007408701C5A28F8027508031C750FF902AF
:1000B2005F28F80775080318750FF907F00DF10DA1
:1000C200FC0B4E2870186B287408F8077508031883
:0800D200750FF907000008009A
:1000DA00831203137008F100F0010830FC00710864
:1000EA00F40C03187C28FC0B7528F101003403106A
:1000FA008128F40C0318F107F10CF00CFC0B7E2894
:02010A000800EB
:10010C00831203137408003A031D95287508003AEE
:10011C00031D9528FF30F0007F30F100EE2883128C
:10012C000313FD01F901F80171087004031900347F
:10013C0071087506FA00FA1BFD09FB01F51FAB28C7
:10014C00F409F509F40A0319F50AF11FB228F009AC
:10015C00F109F00A0319F10A71087504FA00FA1B87
:10016C00C72841207B18DA28FD1F0034F009F1095B
:10017C00F00A0319F10AF809F909F80A0319F90A3E
:10018C000034F51FD628F11BD2287108F90070082D
:10019C00F800F101F001BA28F101F001F00A003485
:1001AC00F109F009FB0AB728F80A0319F90A7408CF
:1001BC007802031DBA2875087902031DBA28F901C3
:1001CC00F801F00A0319F10AF11FBA280000FF34F4
:0201DC00080019
:1001DE008316031398169030831298008316871790
:1001EE00071383128C1EFE281A08F000F828080048
:0E01FE008312031327088A00260882000800D7
:0A020C00831203132B089B00080067
:0A021600831203132B089500080063
:1002200083120313F101F2012C087202031D1A2933
:100230002B08710203182F29F301F4010030740216
:10024000031D24296F30730203182B290000F30AC1
:100250000319F40A1E29F10A0319F20A14290800E5
:10026000831203132A08F0000A30F4006D200930CD
:10027000F4000030F5008620E8307007A400710813
:0A0280000318013E033EA50008002C
:10028A00FF208A110A128000840AA60A0319A70A03
:08029A00F003031D45290800D3
:0C02A200831603130612831206120800D4
:1002AE0083160313071187100C30831297000C303E
:1002BE009D00F93083169200053083129200803033
:0C02CE00AB000B218030AB0006210800C3
:1002DA0033308316031399001815EF206430AB00EE
:0802EA000030AC0010210800F7
:1002F20001308312031390000B308F00DC308E002C
:0C0302000C1083160C140B178B1708004E
:10030E000230831603138600403087008801831263
:10031E008601870188016430AB000030AC001021EB
:02032E000800C5
:100330000730831203139200F93083169200831260
:080340008C1083168C140800D8
:1003480083120313A301DC30A4000530A500872124
:100358006D2151215721792198215A308312AA0001
:100368003021831686118312861186152730FC00EA
:10037800F530FD00FD0BBE29FC0BBE29861134307B
:10038800FC00F130FD00FD0BC729FC0BC72900005C
:060398000000B929CE2986
:02400E004A2F37
:00000001FF
