:0200000089284D
:0E0006008312031321088A00200882000800DC
:0A0014008312031322089B0008006A
:10001E008316031398169030831298008316871751
:10002E00071383128C1E1E281A08F00018280800C9
:0A003E008312031322089500080046
:1000480083120313F101F20123087202031D2E2803
:100058002208710203184328F301F40100307402E6
:10006800031D38286F30730203183F280000F30A75
:100078000319F40A3228F10A0319F20A2828080099
:0C008800831603130612831206120800F0
:1000940003208A110A128000840AA00A0319A10A03
:0800A400F003031D4A280800C7
:1000AC0002308316031386004030870088018312C8
:1000BC008601870188016430A2000030A30024204F
:0200CC0008002A
:1000CE0083160313071187100C30831297000C3020
:1000DE009D00F93083169200053083129200803015
:0C00EE00A2001F208030A2000A200800A1
:1000FA00333083160313990018150F206430A200B9
:08010A000030A30024200800CE
:1001120056207D2044206720831686118312861183
:1001220086152730FC00F530FD00FD0B9628FC0BF0
:10013200962886113430FC00F130FD00FD0B9F281B
:0C014200FC0B9F28000000009128A6285C
:02400E004A2F37
:00000001FF
